:100000000C9456000C940C030C9473000C94730025
:100010000C9473000C9473000C9473000C94730094
:100020000C9473000C9473000C9473000C94730084
:100030000C9473000C9473000C9473000C94730074
:100040000C9473000C9473000C9473000C94730064
:100050000C9473000C9473000C9473000C94F402D1
:100060000C9473000C9496010C9473000C94730020
:100070000C9473000C9473000C9473000C94730034
:100080000C9473000C9473000C9473000C94730024
:100090000C9473000C9473000C9473000C94730014
:1000A0000C9473000C9473000C94730011241FBE05
:1000B000CFEFDAE0DEBFCDBF11E0A0E0B1E0ECE4CD
:1000C000FEE002C005900D92A639B107D9F721E0F4
:1000D000A6E9B1E001C01D92AD39B207E1F70E9477
:1000E0001F030C9424070C940000899A89988FEAC6
:1000F00094E00197F1F700C000000895CF93C82F56
:10010000662311F0889A01C088985E985F98469897
:100110004798CC230CF45E9AC6FD5F9AC5FD469ABB
:10012000C4FD479A0E9475005E985F98469847986C
:10013000C3FD5E9AC2FD5F9AC1FD469AC0FD479A13
:100140000E947500CF91089560E00E947E0008959E
:10015000809A819A3F9A3E9A579A569A2FEF80E753
:1001600092E0215080409040E1F700C00000469AA4
:10017000479A0E9475008FE090E40197F1F700C064
:100180000000469A479A0E9475008FE090E401971C
:10019000F1F700C00000469A479A0E9475008FE070
:1001A00090E40197F1F700C000004798469A0E943A
:1001B000750088E20E94A40088E00E94A40081E00B
:1001C0000E94A4008FE39FE10197F1F700C00000B7
:1001D00082E00E94A4008FE39FE10197F1F700C045
:1001E00000008CE00E94A4000895823031F083303A
:1001F00031F0813031F490E405C094E103C094E51E
:1002000001C090E0282F30E03093970120939601B1
:1002100080E8890F0E94A40008958A3079F48091C3
:100220009601909197011816190624F480E00E9417
:10023000F50008958F5F0E94F500089561E00E9427
:100240007E000895CF93DF93EC012196FC0180811D
:10025000882329F00E940D0189918111FBCFDF9144
:10026000CF910895CF93DF93CDB7DEB7C055D109B5
:100270000FB6F894DEBF0FBECDBFAE014B5A5F4F35
:10028000FA0161917191AF01CE0101960E9426049D
:10029000CE0101960E942201C05BDF4F0FB6F89499
:1002A000DEBF0FBECDBFDF91CF910895882319F037
:1002B000813031F0089580E8860F0E94A4000895EF
:1002C00080EC860F0E94A40008951092970110926E
:1002D000960181E00E94A4008FE39FE10197F1F76E
:1002E00000C0000008951092CD0087E68093CC00F6
:1002F00086E08093CA0088E98093C9000895E8ECFD
:10030000F0E0908195FFFDCF8093CE000895CF93CC
:10031000DF93EC018881882331F021960E947F01D0
:1003200089918111FBCFDF91CF9108951F920F9298
:100330000FB60F9211248F938091CE0080939A0173
:100340008F910F900FBE0F901F901895CF93C62FCF
:10035000682F81E090E00E94DB066C2F80E090E047
:100360000E94DB06CF910895CF93DF9381E090E068
:100370000E94D306D82F80E090E00E94D306C82FB9
:10038000DF3F09F4D0E0CF3F09F4C0E00E946501EF
:1003900060E080E00E9456011F92CF931F92DF938E
:1003A00080E091E09F938F930E9432012FEF87EAC4
:1003B00091E6215080409040E1F700C000000F908E
:1003C0000F900F900F900F900F90DF91CF910895A5
:1003D000FC011082FB01108210929C0185B18F7C80
:1003E00085B90E94650160E080E00E94560183E1CA
:1003F00091E09F938F930E94320181E291E00E94ED
:1004000087010F900F900895CF92DF92EF92FF92A5
:100410000F931F93CF93DF93CDB7DEB728970FB617
:10042000F894DEBF0FBECDBF90919C019111C5C065
:10043000853118F4653108F4C0C0062F182F8E31AD
:1004400039F46E3108F0AEC081E080939C0124C085
:100450006E3131F48E3120F482E080939C015FC0D4
:10046000812F90E0202F30E0A9014E5F5F4F84176D
:10047000950734F0153120F081E080939C010CC089
:100480000296281739070CF498C0053108F495C076
:1004900082E080939C0143C060E080E00E945601AE
:1004A0001F920F931F921F9383E391E09F938F936B
:1004B0000E943201602F812F0E94A60185E491E005
:1004C0000E9487011F921F930F2EFEE0CF2EF1E0B6
:1004D000DF2EF02DDF92CF92CE0101967C019F930B
:1004E0008F930E940404C7010E94870181E591E077
:1004F0000E9487011F920F93DF92CF92FF92EF929B
:100500000E940404C7010E94870180E391E00E94D9
:1005100087010FB6F894DEBF0FBECDBF4EC060E0BE
:1005200080E00E9456011F920F931F921F9385E552
:1005300091E09F938F930E943201602F812F0E9440
:10054000A60187E691E00E9487011F921F930F2E5C
:10055000FEE0CF2EF1E0DF2EF02DDF92CF92CE0124
:1005600001967C019F938F930E940404C7010E940F
:10057000870181E591E00E9487011F920F93DF922E
:10058000CF92FF92EF920E940404C7010E9487015C
:1005900080E391E00E9487010FB6F894DEBF0FBEA2
:1005A000CDBF0BC090E0262F30E0A9014E5F5F4F1A
:1005B000841795070CF060CF63CF28960FB6F89498
:1005C000DEBF0FBECDBFDF91CF911F910F91FF9086
:1005D000EF90DF90CF90089514BC85E085BD81E059
:1005E00080936E0016BC08951F920F920FB60F9263
:1005F00011248F9381E080939B018F910F900FBE08
:100600000F901F901895E9E6F0E080818360808369
:10061000E89A1092980108951F920F920FB60F92C8
:1006200011248F9380919801882319F081E08093A1
:1006300099018F910F900FBE0F901F901895CF9337
:10064000DF93CDB7DEB7A2970FB6F894DEBF0FBE2B
:10065000CDBF84B1806384B98AB18C7F8AB98BB1F4
:1006600083608BB986988E9A19821A820E94A8009C
:100670000E9473010E94EC020E94030378940E947E
:10068000B401BE016E5F7F4FCE0101960E94E8016A
:1006900081E080939801772473948824839499242B
:1006A00093940F2EF4E84F2EF1E05F2EF02D0F2ED5
:1006B000F4E7CF2EF1E0DF2EF02D7E0183E0E80E8F
:1006C000F11C80919B018823E1F310929B018091A2
:1006D0009A01882371F080919A0110929A018F7D7E
:1006E000823539F4BE016E5F7F4FCE0101960E94C4
:1006F000E80189B1B92C182F127081FDB12C8FB18E
:10070000A92C982F907486FDA12C911109C071100D
:1007100007C0BE016E5F7F4FCE0101960E94E801C7
:1007200080919C01811154C080919901882309F422
:1007300065C01092990189818E3108F05FC08F5F8A
:1007400089839A811F929F931F928F93DF92CF92FA
:10075000FF92EF920E940404C7010E9487010FB626
:10076000F894DEBF0FBECDBF11111AC0811018C0A2
:100770008A818E31A8F48F5F8A831F928F9389813B
:100780001F928F93DF92CF92FF92EF920E94040408
:10079000C7010E9487010FB6F894DEBF0FBECDBF20
:1007A00080919C01811114C060E080E00E9456019C
:1007B0008A811F928F9389811F928F935F924F92AC
:1007C0000E9432010F900F900F900F900F900F909A
:1007D00080919C01813019F42C9A2D9808C08230A8
:1007E00019F42D9A2C9803C085B18F7C85B96A8144
:1007F00089810E9404027A2C8B2C63CF1111D4CFF3
:10080000882009F4B5CFD0CFAEE0B0E0EAE0F4E064
:100810000C94FB060D891E8986E08C831A8309835C
:100820008FEF9FE79E838D83AE01475E5F4F6F8999
:10083000788DCE0101960E944204EF81F885E00F89
:10084000F11F10822E96E4E00C941707AEE0B0E0A2
:10085000ECE2F4E00C94FB068C0186E08C831A83B6
:1008600009838FEF9FE79E838D83CE0101960E94BF
:100870004204EF81F885E00FF11F10822E96E4E02C
:100880000C941707ABE0B0E0E8E4F4E00C94ED065C
:100890006C017B018A01FC0117821682838181FF32
:1008A000CCC1CE0101963C01F6019381F70193FD85
:1008B000859193FF81917F01882309F4BAC1853224
:1008C00039F493FD859193FF81917F01853229F45D
:1008D000B60190E00E943906E7CF912C212C312CF3
:1008E000FFE1F315D8F08B3279F038F4803279F0EB
:1008F0008332A1F4232D20611DC08D3261F080333D
:1009000069F4232D216016C0832D8260382EE32DDB
:10091000E4603E2E2AC0F32DF8601DC037FC2DC0C8
:1009200020ED280F2A3040F08E32B9F436FC81C118
:10093000232D2064322E19C036FE06C08AE0989E10
:10094000200D1124922E11C0EAE02E9E200D1124BC
:10095000222EF32DF0623F2E08C08C3621F4832D19
:100960008068382E02C0883641F4F70193FD8591E6
:1009700093FF81917F018111B3CF982F9F7D955473
:10098000933028F40C5F1F4F9FE399830DC083368B
:1009900031F0833771F0833509F059C021C0F80177
:1009A000808189830E5F1F4F88248394912C53018B
:1009B00013C02801F2E04F0E511CF801A080B18055
:1009C00036FE03C0692D70E002C06FEF7FEFC501F6
:1009D0000E942E064C018201F32DFF773F2E16C098
:1009E000280122E0420E511CF801A080B18036FEA1
:1009F00003C0692D70E002C06FEF7FEFC5010E9458
:100A000023064C01F32DF0683F2E820133FC1BC0FE
:100A1000822D90E088169906B0F4B60180E290E04D
:100A20000E9439062A94F4CFF50137FC859137FEF0
:100A300081915F01B60190E00E94390621102A944D
:100A400021E0821A91088114910471F7E8C084367C
:100A500011F0893641F5F80137FE07C060817181D8
:100A6000828193810C5F1F4F08C060817181072EC6
:100A7000000C880B990B0E5F1F4FF32DFF763F2E56
:100A800097FF09C090958095709561957F4F8F4F26
:100A90009F4FF0683F2E2AE030E0A3010E947506C8
:100AA000882E861845C0853731F4232D2F7EB22E2F
:100AB0002AE030E025C0932D997FB92E8F36C1F002
:100AC00018F4883579F0B5C0803719F0883721F0EF
:100AD000B0C0E92FE061BE2EB4FE0DC0FB2DF46066
:100AE000BF2E09C034FE0AC0292F2660B22E06C0D0
:100AF00028E030E005C020E130E002C020E132E033
:100B0000F801B7FE07C060817181828193810C5F1B
:100B10001F4F06C06081718180E090E00E5F1F4F23
:100B2000A3010E947506882E8618FB2DFF773F2EA5
:100B300036FE0DC0232D2E7FA22E891458F434FECC
:100B40000BC032FC09C0832D8E7EA82E05C0B82CA8
:100B5000A32C03C0B82C01C0B92CA4FE0FC0FE0109
:100B6000E80DF11D8081803321F49A2D997EA92E04
:100B700009C0A2FE06C0B394B39404C08A2D86783F
:100B800009F0B394A3FC11C0A0FE06C0B21488F40F
:100B9000280C922C9B180EC0B21460F4B60180E2AF
:100BA00090E00E943906B394F7CFB21418F42B18D2
:100BB00002C0982C212CA4FE10C0B60180E390E066
:100BC0000E943906A2FE17C0A1FC03C088E790E08E
:100BD00002C088E590E0B6010CC08A2D867859F0F5
:100BE000A1FE02C08BE201C080E2A7FC8DE2B6014B
:100BF00090E00E943906891438F4B60180E390E051
:100C00000E9439069A94F7CF8A94F301E80DF11DFA
:100C10008081B60190E00E9439068110F5CF222034
:100C200009F442CEB60180E290E00E9439062A948F
:100C3000F6CFF6018681978102C08FEF9FEF2B964A
:100C4000E2E10C940907FC0105906150704001102D
:100C5000D8F7809590958E0F9F1F0895FC016150E5
:100C6000704001900110D8F7809590958E0F9F1FCE
:100C700008950F931F93CF93DF93FB01238121FDF1
:100C800003C08FEF9FEF2CC022FF16C04681578113
:100C9000248135814217530744F4A081B1819D011D
:100CA0002F5F3F4F318320838C93268137812F5FC5
:100CB0003F4F3783268314C08B01EC01FB01008476
:100CC000F185E02D0995892BE1F6D80116968D91D5
:100CD0009C911797019617969C938E931697CE0129
:100CE000DF91CF911F910F910895FA01AA27283023
:100CF00051F1203181F1E8946F936E7F6E5F7F4FE9
:100D00008F4F9F4FAF4FB1E03ED0B4E03CD0670F64
:100D1000781F891F9A1FA11D680F791F8A1F911DB7
:100D2000A11D6A0F711D811D911DA11D20D009F407
:100D300068943F912AE0269F11243019305D319349
:100D4000DEF6CF010895462F4770405D4193B3E032
:100D50000FD0C9F7F6CF462F4F70405D4A3318F0D9
:100D6000495D31FD4052419302D0A9F7EACFB4E08A
:100D7000A6959795879577956795BA95C9F7009742
:100D80006105710508959B01AC010A2E06945795E3
:100D9000479537952795BA95C9F7620F731F841F3A
:100DA000951FA01D0895F999FECF92BD81BDF89AB7
:100DB000992780B50895262FF999FECF92BD81BD60
:100DC000F89A019700B4021639F01FBA20BD0FB689
:100DD000F894FA9AF99A0FBE08952F923F924F9283
:100DE0005F926F927F928F929F92AF92BF92CF92BB
:100DF000DF92EF92FF920F931F93CF93DF93CDB7C4
:100E0000DEB7CA1BDB0B0FB6F894DEBF0FBECDBF3B
:100E100009942A88398848885F846E847D848C840C
:100E20009B84AA84B984C884DF80EE80FD800C8115
:100E30001B81AA81B981CE0FD11D0FB6F894DEBFF8
:0C0E40000FBECDBFED010895F894FFCF68
:100E4C004C415354204C3A2530327520523A2530BF
:100E5C003275004C3A303020523A303020504C59D8
:100E6C00005245534554204C3D303020523D3030DB
:100E7C000D0A004C3A2530327520523A2530327525
:100E8C00204C57200057494E204C454654204C3D91
:100E9C000020523D004C3A2530327520523A253014
:100EAC003275205257200057494E2052494748541A
:100EBC00204C3D004C3D2530327520523D253032C2
:100ECC00750D0A004C3A2530327520523A253032D5
:060EDC007520504C590086
:00000001FF
